{
  "_format": "hh-sol-artifact-1",
  "contractName": "NovaxStakingVault",
  "sourceName": "contracts/novax/NovaxStakingVault.sol",
  "abi": [
    {
      "inputs": [
        {
          "internalType": "address",
          "name": "_usdcToken",
          "type": "address"
        }
      ],
      "stateMutability": "nonpayable",
      "type": "constructor"
    },
    {
      "inputs": [],
      "name": "AccessControlBadConfirmation",
      "type": "error"
    },
    {
      "inputs": [
        {
          "internalType": "address",
          "name": "account",
          "type": "address"
        },
        {
          "internalType": "bytes32",
          "name": "neededRole",
          "type": "bytes32"
        }
      ],
      "name": "AccessControlUnauthorizedAccount",
      "type": "error"
    },
    {
      "inputs": [],
      "name": "EnforcedPause",
      "type": "error"
    },
    {
      "inputs": [],
      "name": "ExpectedPause",
      "type": "error"
    },
    {
      "inputs": [],
      "name": "ReentrancyGuardReentrantCall",
      "type": "error"
    },
    {
      "inputs": [
        {
          "internalType": "address",
          "name": "token",
          "type": "address"
        }
      ],
      "name": "SafeERC20FailedOperation",
      "type": "error"
    },
    {
      "anonymous": false,
      "inputs": [
        {
          "indexed": false,
          "internalType": "uint256",
          "name": "totalYieldCompounded",
          "type": "uint256"
        },
        {
          "indexed": false,
          "internalType": "uint256",
          "name": "stakersAffected",
          "type": "uint256"
        },
        {
          "indexed": false,
          "internalType": "uint256",
          "name": "timestamp",
          "type": "uint256"
        }
      ],
      "name": "GlobalCompoundExecuted",
      "type": "event"
    },
    {
      "anonymous": false,
      "inputs": [
        {
          "indexed": false,
          "internalType": "address",
          "name": "account",
          "type": "address"
        }
      ],
      "name": "Paused",
      "type": "event"
    },
    {
      "anonymous": false,
      "inputs": [
        {
          "indexed": true,
          "internalType": "bytes32",
          "name": "poolId",
          "type": "bytes32"
        },
        {
          "indexed": false,
          "internalType": "uint256",
          "name": "principal",
          "type": "uint256"
        },
        {
          "indexed": false,
          "internalType": "uint256",
          "name": "yield",
          "type": "uint256"
        },
        {
          "indexed": false,
          "internalType": "uint256",
          "name": "total",
          "type": "uint256"
        },
        {
          "indexed": false,
          "internalType": "uint256",
          "name": "timestamp",
          "type": "uint256"
        }
      ],
      "name": "PaymentReceived",
      "type": "event"
    },
    {
      "anonymous": false,
      "inputs": [
        {
          "indexed": true,
          "internalType": "bytes32",
          "name": "poolId",
          "type": "bytes32"
        },
        {
          "indexed": false,
          "internalType": "uint256",
          "name": "amount",
          "type": "uint256"
        },
        {
          "indexed": false,
          "internalType": "uint256",
          "name": "timestamp",
          "type": "uint256"
        }
      ],
      "name": "PoolDeployed",
      "type": "event"
    },
    {
      "anonymous": false,
      "inputs": [
        {
          "indexed": true,
          "internalType": "bytes32",
          "name": "role",
          "type": "bytes32"
        },
        {
          "indexed": true,
          "internalType": "bytes32",
          "name": "previousAdminRole",
          "type": "bytes32"
        },
        {
          "indexed": true,
          "internalType": "bytes32",
          "name": "newAdminRole",
          "type": "bytes32"
        }
      ],
      "name": "RoleAdminChanged",
      "type": "event"
    },
    {
      "anonymous": false,
      "inputs": [
        {
          "indexed": true,
          "internalType": "bytes32",
          "name": "role",
          "type": "bytes32"
        },
        {
          "indexed": true,
          "internalType": "address",
          "name": "account",
          "type": "address"
        },
        {
          "indexed": true,
          "internalType": "address",
          "name": "sender",
          "type": "address"
        }
      ],
      "name": "RoleGranted",
      "type": "event"
    },
    {
      "anonymous": false,
      "inputs": [
        {
          "indexed": true,
          "internalType": "bytes32",
          "name": "role",
          "type": "bytes32"
        },
        {
          "indexed": true,
          "internalType": "address",
          "name": "account",
          "type": "address"
        },
        {
          "indexed": true,
          "internalType": "address",
          "name": "sender",
          "type": "address"
        }
      ],
      "name": "RoleRevoked",
      "type": "event"
    },
    {
      "anonymous": false,
      "inputs": [
        {
          "indexed": true,
          "internalType": "address",
          "name": "user",
          "type": "address"
        },
        {
          "indexed": false,
          "internalType": "uint256",
          "name": "stakeIndex",
          "type": "uint256"
        },
        {
          "indexed": false,
          "internalType": "uint256",
          "name": "amount",
          "type": "uint256"
        },
        {
          "indexed": false,
          "internalType": "enum NovaxStakingVault.StakingTier",
          "name": "tier",
          "type": "uint8"
        },
        {
          "indexed": false,
          "internalType": "uint256",
          "name": "unlockAt",
          "type": "uint256"
        },
        {
          "indexed": false,
          "internalType": "bool",
          "name": "autoCompound",
          "type": "bool"
        },
        {
          "indexed": false,
          "internalType": "uint256",
          "name": "timestamp",
          "type": "uint256"
        }
      ],
      "name": "Staked",
      "type": "event"
    },
    {
      "anonymous": false,
      "inputs": [
        {
          "indexed": false,
          "internalType": "address",
          "name": "account",
          "type": "address"
        }
      ],
      "name": "Unpaused",
      "type": "event"
    },
    {
      "anonymous": false,
      "inputs": [
        {
          "indexed": true,
          "internalType": "address",
          "name": "user",
          "type": "address"
        },
        {
          "indexed": false,
          "internalType": "uint256",
          "name": "stakeIndex",
          "type": "uint256"
        },
        {
          "indexed": false,
          "internalType": "uint256",
          "name": "principal",
          "type": "uint256"
        },
        {
          "indexed": false,
          "internalType": "uint256",
          "name": "yield",
          "type": "uint256"
        },
        {
          "indexed": false,
          "internalType": "uint256",
          "name": "total",
          "type": "uint256"
        },
        {
          "indexed": false,
          "internalType": "uint256",
          "name": "timestamp",
          "type": "uint256"
        }
      ],
      "name": "Unstaked",
      "type": "event"
    },
    {
      "anonymous": false,
      "inputs": [
        {
          "indexed": true,
          "internalType": "address",
          "name": "user",
          "type": "address"
        },
        {
          "indexed": false,
          "internalType": "uint256",
          "name": "stakeIndex",
          "type": "uint256"
        },
        {
          "indexed": false,
          "internalType": "uint256",
          "name": "yieldAmount",
          "type": "uint256"
        },
        {
          "indexed": false,
          "internalType": "uint256",
          "name": "newPrincipal",
          "type": "uint256"
        },
        {
          "indexed": false,
          "internalType": "uint256",
          "name": "timestamp",
          "type": "uint256"
        }
      ],
      "name": "YieldCompounded",
      "type": "event"
    },
    {
      "inputs": [],
      "name": "ADMIN_ROLE",
      "outputs": [
        {
          "internalType": "bytes32",
          "name": "",
          "type": "bytes32"
        }
      ],
      "stateMutability": "view",
      "type": "function"
    },
    {
      "inputs": [],
      "name": "COMPOUND_INTERVAL",
      "outputs": [
        {
          "internalType": "uint256",
          "name": "",
          "type": "uint256"
        }
      ],
      "stateMutability": "view",
      "type": "function"
    },
    {
      "inputs": [],
      "name": "DEFAULT_ADMIN_ROLE",
      "outputs": [
        {
          "internalType": "bytes32",
          "name": "",
          "type": "bytes32"
        }
      ],
      "stateMutability": "view",
      "type": "function"
    },
    {
      "inputs": [],
      "name": "OPERATOR_ROLE",
      "outputs": [
        {
          "internalType": "bytes32",
          "name": "",
          "type": "bytes32"
        }
      ],
      "stateMutability": "view",
      "type": "function"
    },
    {
      "inputs": [],
      "name": "POOL_MANAGER_ROLE",
      "outputs": [
        {
          "internalType": "bytes32",
          "name": "",
          "type": "bytes32"
        }
      ],
      "stateMutability": "view",
      "type": "function"
    },
    {
      "inputs": [
        {
          "internalType": "uint256",
          "name": "",
          "type": "uint256"
        }
      ],
      "name": "activePools",
      "outputs": [
        {
          "internalType": "bytes32",
          "name": "",
          "type": "bytes32"
        }
      ],
      "stateMutability": "view",
      "type": "function"
    },
    {
      "inputs": [
        {
          "internalType": "bytes32",
          "name": "_poolId",
          "type": "bytes32"
        },
        {
          "internalType": "uint256",
          "name": "_amount",
          "type": "uint256"
        }
      ],
      "name": "deployToPool",
      "outputs": [],
      "stateMutability": "nonpayable",
      "type": "function"
    },
    {
      "inputs": [
        {
          "internalType": "uint256",
          "name": "_amount",
          "type": "uint256"
        },
        {
          "internalType": "address",
          "name": "_recipient",
          "type": "address"
        }
      ],
      "name": "emergencyWithdraw",
      "outputs": [],
      "stateMutability": "nonpayable",
      "type": "function"
    },
    {
      "inputs": [],
      "name": "getActivePoolsCount",
      "outputs": [
        {
          "internalType": "uint256",
          "name": "",
          "type": "uint256"
        }
      ],
      "stateMutability": "view",
      "type": "function"
    },
    {
      "inputs": [],
      "name": "getAllTierConfigs",
      "outputs": [
        {
          "components": [
            {
              "internalType": "uint256",
              "name": "lockPeriod",
              "type": "uint256"
            },
            {
              "internalType": "uint256",
              "name": "baseApyBps",
              "type": "uint256"
            },
            {
              "internalType": "uint256",
              "name": "tierBonusBps",
              "type": "uint256"
            },
            {
              "internalType": "uint256",
              "name": "minStake",
              "type": "uint256"
            },
            {
              "internalType": "string",
              "name": "name",
              "type": "string"
            }
          ],
          "internalType": "struct NovaxStakingVault.TierConfig",
          "name": "silver",
          "type": "tuple"
        },
        {
          "components": [
            {
              "internalType": "uint256",
              "name": "lockPeriod",
              "type": "uint256"
            },
            {
              "internalType": "uint256",
              "name": "baseApyBps",
              "type": "uint256"
            },
            {
              "internalType": "uint256",
              "name": "tierBonusBps",
              "type": "uint256"
            },
            {
              "internalType": "uint256",
              "name": "minStake",
              "type": "uint256"
            },
            {
              "internalType": "string",
              "name": "name",
              "type": "string"
            }
          ],
          "internalType": "struct NovaxStakingVault.TierConfig",
          "name": "gold",
          "type": "tuple"
        },
        {
          "components": [
            {
              "internalType": "uint256",
              "name": "lockPeriod",
              "type": "uint256"
            },
            {
              "internalType": "uint256",
              "name": "baseApyBps",
              "type": "uint256"
            },
            {
              "internalType": "uint256",
              "name": "tierBonusBps",
              "type": "uint256"
            },
            {
              "internalType": "uint256",
              "name": "minStake",
              "type": "uint256"
            },
            {
              "internalType": "string",
              "name": "name",
              "type": "string"
            }
          ],
          "internalType": "struct NovaxStakingVault.TierConfig",
          "name": "platinum",
          "type": "tuple"
        },
        {
          "components": [
            {
              "internalType": "uint256",
              "name": "lockPeriod",
              "type": "uint256"
            },
            {
              "internalType": "uint256",
              "name": "baseApyBps",
              "type": "uint256"
            },
            {
              "internalType": "uint256",
              "name": "tierBonusBps",
              "type": "uint256"
            },
            {
              "internalType": "uint256",
              "name": "minStake",
              "type": "uint256"
            },
            {
              "internalType": "string",
              "name": "name",
              "type": "string"
            }
          ],
          "internalType": "struct NovaxStakingVault.TierConfig",
          "name": "diamond",
          "type": "tuple"
        }
      ],
      "stateMutability": "view",
      "type": "function"
    },
    {
      "inputs": [
        {
          "internalType": "address",
          "name": "_user",
          "type": "address"
        },
        {
          "internalType": "uint256",
          "name": "_stakeIndex",
          "type": "uint256"
        }
      ],
      "name": "getPendingYield",
      "outputs": [
        {
          "internalType": "uint256",
          "name": "pendingYield",
          "type": "uint256"
        }
      ],
      "stateMutability": "view",
      "type": "function"
    },
    {
      "inputs": [
        {
          "internalType": "bytes32",
          "name": "_poolId",
          "type": "bytes32"
        }
      ],
      "name": "getPoolDeployment",
      "outputs": [
        {
          "components": [
            {
              "internalType": "bytes32",
              "name": "poolId",
              "type": "bytes32"
            },
            {
              "internalType": "uint256",
              "name": "totalDeployed",
              "type": "uint256"
            },
            {
              "internalType": "uint256",
              "name": "principalReturned",
              "type": "uint256"
            },
            {
              "internalType": "uint256",
              "name": "yieldReturned",
              "type": "uint256"
            },
            {
              "internalType": "bool",
              "name": "closed",
              "type": "bool"
            }
          ],
          "internalType": "struct NovaxStakingVault.PoolDeployment",
          "name": "",
          "type": "tuple"
        }
      ],
      "stateMutability": "view",
      "type": "function"
    },
    {
      "inputs": [
        {
          "internalType": "bytes32",
          "name": "role",
          "type": "bytes32"
        }
      ],
      "name": "getRoleAdmin",
      "outputs": [
        {
          "internalType": "bytes32",
          "name": "",
          "type": "bytes32"
        }
      ],
      "stateMutability": "view",
      "type": "function"
    },
    {
      "inputs": [
        {
          "internalType": "address",
          "name": "_user",
          "type": "address"
        }
      ],
      "name": "getUserDashboard",
      "outputs": [
        {
          "internalType": "uint256",
          "name": "totalStakedAmount",
          "type": "uint256"
        },
        {
          "internalType": "uint256",
          "name": "totalPendingYield",
          "type": "uint256"
        },
        {
          "internalType": "uint256",
          "name": "activeStakesCount",
          "type": "uint256"
        },
        {
          "components": [
            {
              "internalType": "uint256",
              "name": "principal",
              "type": "uint256"
            },
            {
              "internalType": "uint256",
              "name": "compoundedPrincipal",
              "type": "uint256"
            },
            {
              "internalType": "uint256",
              "name": "stakedAt",
              "type": "uint256"
            },
            {
              "internalType": "uint256",
              "name": "unlockAt",
              "type": "uint256"
            },
            {
              "internalType": "uint256",
              "name": "lastCompoundTime",
              "type": "uint256"
            },
            {
              "internalType": "enum NovaxStakingVault.StakingTier",
              "name": "tier",
              "type": "uint8"
            },
            {
              "internalType": "bool",
              "name": "autoCompound",
              "type": "bool"
            },
            {
              "internalType": "bool",
              "name": "active",
              "type": "bool"
            }
          ],
          "internalType": "struct NovaxStakingVault.Stake[]",
          "name": "stakes",
          "type": "tuple[]"
        },
        {
          "internalType": "uint256",
          "name": "vaultTotal",
          "type": "uint256"
        },
        {
          "internalType": "uint256",
          "name": "vaultDeployed",
          "type": "uint256"
        },
        {
          "internalType": "uint256",
          "name": "vaultUtilization",
          "type": "uint256"
        }
      ],
      "stateMutability": "view",
      "type": "function"
    },
    {
      "inputs": [
        {
          "internalType": "address",
          "name": "_user",
          "type": "address"
        }
      ],
      "name": "getUserStakes",
      "outputs": [
        {
          "components": [
            {
              "internalType": "uint256",
              "name": "principal",
              "type": "uint256"
            },
            {
              "internalType": "uint256",
              "name": "compoundedPrincipal",
              "type": "uint256"
            },
            {
              "internalType": "uint256",
              "name": "stakedAt",
              "type": "uint256"
            },
            {
              "internalType": "uint256",
              "name": "unlockAt",
              "type": "uint256"
            },
            {
              "internalType": "uint256",
              "name": "lastCompoundTime",
              "type": "uint256"
            },
            {
              "internalType": "enum NovaxStakingVault.StakingTier",
              "name": "tier",
              "type": "uint8"
            },
            {
              "internalType": "bool",
              "name": "autoCompound",
              "type": "bool"
            },
            {
              "internalType": "bool",
              "name": "active",
              "type": "bool"
            }
          ],
          "internalType": "struct NovaxStakingVault.Stake[]",
          "name": "",
          "type": "tuple[]"
        }
      ],
      "stateMutability": "view",
      "type": "function"
    },
    {
      "inputs": [
        {
          "internalType": "address",
          "name": "_user",
          "type": "address"
        }
      ],
      "name": "getUserTotalStaked",
      "outputs": [
        {
          "internalType": "uint256",
          "name": "",
          "type": "uint256"
        }
      ],
      "stateMutability": "view",
      "type": "function"
    },
    {
      "inputs": [],
      "name": "getVaultAnalytics",
      "outputs": [
        {
          "internalType": "uint256",
          "name": "totalStaked",
          "type": "uint256"
        },
        {
          "internalType": "uint256",
          "name": "totalDeployed",
          "type": "uint256"
        },
        {
          "internalType": "uint256",
          "name": "totalAvailable",
          "type": "uint256"
        },
        {
          "internalType": "uint256",
          "name": "utilizationBps",
          "type": "uint256"
        },
        {
          "internalType": "uint256",
          "name": "totalYield",
          "type": "uint256"
        },
        {
          "internalType": "uint256",
          "name": "activePoolsCount",
          "type": "uint256"
        },
        {
          "internalType": "bytes32[]",
          "name": "activePools_",
          "type": "bytes32[]"
        }
      ],
      "stateMutability": "view",
      "type": "function"
    },
    {
      "inputs": [],
      "name": "getVaultStatus",
      "outputs": [
        {
          "internalType": "uint256",
          "name": "total",
          "type": "uint256"
        },
        {
          "internalType": "uint256",
          "name": "deployed",
          "type": "uint256"
        },
        {
          "internalType": "uint256",
          "name": "available",
          "type": "uint256"
        },
        {
          "internalType": "uint256",
          "name": "utilizationBps",
          "type": "uint256"
        }
      ],
      "stateMutability": "view",
      "type": "function"
    },
    {
      "inputs": [
        {
          "internalType": "bytes32",
          "name": "role",
          "type": "bytes32"
        },
        {
          "internalType": "address",
          "name": "account",
          "type": "address"
        }
      ],
      "name": "grantRole",
      "outputs": [],
      "stateMutability": "nonpayable",
      "type": "function"
    },
    {
      "inputs": [
        {
          "internalType": "bytes32",
          "name": "role",
          "type": "bytes32"
        },
        {
          "internalType": "address",
          "name": "account",
          "type": "address"
        }
      ],
      "name": "hasRole",
      "outputs": [
        {
          "internalType": "bool",
          "name": "",
          "type": "bool"
        }
      ],
      "stateMutability": "view",
      "type": "function"
    },
    {
      "inputs": [
        {
          "internalType": "bytes32",
          "name": "",
          "type": "bytes32"
        }
      ],
      "name": "isPoolActive",
      "outputs": [
        {
          "internalType": "bool",
          "name": "",
          "type": "bool"
        }
      ],
      "stateMutability": "view",
      "type": "function"
    },
    {
      "inputs": [],
      "name": "lastGlobalCompound",
      "outputs": [
        {
          "internalType": "uint256",
          "name": "",
          "type": "uint256"
        }
      ],
      "stateMutability": "view",
      "type": "function"
    },
    {
      "inputs": [],
      "name": "pause",
      "outputs": [],
      "stateMutability": "nonpayable",
      "type": "function"
    },
    {
      "inputs": [],
      "name": "paused",
      "outputs": [
        {
          "internalType": "bool",
          "name": "",
          "type": "bool"
        }
      ],
      "stateMutability": "view",
      "type": "function"
    },
    {
      "inputs": [
        {
          "internalType": "bytes32",
          "name": "",
          "type": "bytes32"
        }
      ],
      "name": "poolDeployments",
      "outputs": [
        {
          "internalType": "bytes32",
          "name": "poolId",
          "type": "bytes32"
        },
        {
          "internalType": "uint256",
          "name": "totalDeployed",
          "type": "uint256"
        },
        {
          "internalType": "uint256",
          "name": "principalReturned",
          "type": "uint256"
        },
        {
          "internalType": "uint256",
          "name": "yieldReturned",
          "type": "uint256"
        },
        {
          "internalType": "bool",
          "name": "closed",
          "type": "bool"
        }
      ],
      "stateMutability": "view",
      "type": "function"
    },
    {
      "inputs": [
        {
          "internalType": "bytes32",
          "name": "_poolId",
          "type": "bytes32"
        },
        {
          "internalType": "uint256",
          "name": "_principalAmount",
          "type": "uint256"
        },
        {
          "internalType": "uint256",
          "name": "_yieldAmount",
          "type": "uint256"
        }
      ],
      "name": "receivePayment",
      "outputs": [],
      "stateMutability": "nonpayable",
      "type": "function"
    },
    {
      "inputs": [
        {
          "internalType": "bytes32",
          "name": "role",
          "type": "bytes32"
        },
        {
          "internalType": "address",
          "name": "callerConfirmation",
          "type": "address"
        }
      ],
      "name": "renounceRole",
      "outputs": [],
      "stateMutability": "nonpayable",
      "type": "function"
    },
    {
      "inputs": [
        {
          "internalType": "bytes32",
          "name": "role",
          "type": "bytes32"
        },
        {
          "internalType": "address",
          "name": "account",
          "type": "address"
        }
      ],
      "name": "revokeRole",
      "outputs": [],
      "stateMutability": "nonpayable",
      "type": "function"
    },
    {
      "inputs": [
        {
          "internalType": "address",
          "name": "_manager",
          "type": "address"
        }
      ],
      "name": "setVaultCapacityManager",
      "outputs": [],
      "stateMutability": "nonpayable",
      "type": "function"
    },
    {
      "inputs": [
        {
          "internalType": "uint256",
          "name": "_amount",
          "type": "uint256"
        },
        {
          "internalType": "enum NovaxStakingVault.StakingTier",
          "name": "_tier",
          "type": "uint8"
        },
        {
          "internalType": "bool",
          "name": "_autoCompound",
          "type": "bool"
        }
      ],
      "name": "stake",
      "outputs": [],
      "stateMutability": "nonpayable",
      "type": "function"
    },
    {
      "inputs": [
        {
          "internalType": "bytes4",
          "name": "interfaceId",
          "type": "bytes4"
        }
      ],
      "name": "supportsInterface",
      "outputs": [
        {
          "internalType": "bool",
          "name": "",
          "type": "bool"
        }
      ],
      "stateMutability": "view",
      "type": "function"
    },
    {
      "inputs": [
        {
          "internalType": "enum NovaxStakingVault.StakingTier",
          "name": "",
          "type": "uint8"
        }
      ],
      "name": "tierConfigs",
      "outputs": [
        {
          "internalType": "uint256",
          "name": "lockPeriod",
          "type": "uint256"
        },
        {
          "internalType": "uint256",
          "name": "baseApyBps",
          "type": "uint256"
        },
        {
          "internalType": "uint256",
          "name": "tierBonusBps",
          "type": "uint256"
        },
        {
          "internalType": "uint256",
          "name": "minStake",
          "type": "uint256"
        },
        {
          "internalType": "string",
          "name": "name",
          "type": "string"
        }
      ],
      "stateMutability": "view",
      "type": "function"
    },
    {
      "inputs": [],
      "name": "totalAvailableAmount",
      "outputs": [
        {
          "internalType": "uint256",
          "name": "",
          "type": "uint256"
        }
      ],
      "stateMutability": "view",
      "type": "function"
    },
    {
      "inputs": [],
      "name": "totalDeployedAmount",
      "outputs": [
        {
          "internalType": "uint256",
          "name": "",
          "type": "uint256"
        }
      ],
      "stateMutability": "view",
      "type": "function"
    },
    {
      "inputs": [],
      "name": "totalStakedAmount",
      "outputs": [
        {
          "internalType": "uint256",
          "name": "",
          "type": "uint256"
        }
      ],
      "stateMutability": "view",
      "type": "function"
    },
    {
      "inputs": [],
      "name": "totalYieldDistributed",
      "outputs": [
        {
          "internalType": "uint256",
          "name": "",
          "type": "uint256"
        }
      ],
      "stateMutability": "view",
      "type": "function"
    },
    {
      "inputs": [],
      "name": "unpause",
      "outputs": [],
      "stateMutability": "nonpayable",
      "type": "function"
    },
    {
      "inputs": [
        {
          "internalType": "uint256",
          "name": "_stakeIndex",
          "type": "uint256"
        }
      ],
      "name": "unstake",
      "outputs": [],
      "stateMutability": "nonpayable",
      "type": "function"
    },
    {
      "inputs": [
        {
          "internalType": "enum NovaxStakingVault.StakingTier",
          "name": "_tier",
          "type": "uint8"
        },
        {
          "components": [
            {
              "internalType": "uint256",
              "name": "lockPeriod",
              "type": "uint256"
            },
            {
              "internalType": "uint256",
              "name": "baseApyBps",
              "type": "uint256"
            },
            {
              "internalType": "uint256",
              "name": "tierBonusBps",
              "type": "uint256"
            },
            {
              "internalType": "uint256",
              "name": "minStake",
              "type": "uint256"
            },
            {
              "internalType": "string",
              "name": "name",
              "type": "string"
            }
          ],
          "internalType": "struct NovaxStakingVault.TierConfig",
          "name": "_config",
          "type": "tuple"
        }
      ],
      "name": "updateTierConfig",
      "outputs": [],
      "stateMutability": "nonpayable",
      "type": "function"
    },
    {
      "inputs": [],
      "name": "usdcToken",
      "outputs": [
        {
          "internalType": "contract IERC20",
          "name": "",
          "type": "address"
        }
      ],
      "stateMutability": "view",
      "type": "function"
    },
    {
      "inputs": [
        {
          "internalType": "address",
          "name": "",
          "type": "address"
        },
        {
          "internalType": "uint256",
          "name": "",
          "type": "uint256"
        }
      ],
      "name": "userStakes",
      "outputs": [
        {
          "internalType": "uint256",
          "name": "principal",
          "type": "uint256"
        },
        {
          "internalType": "uint256",
          "name": "compoundedPrincipal",
          "type": "uint256"
        },
        {
          "internalType": "uint256",
          "name": "stakedAt",
          "type": "uint256"
        },
        {
          "internalType": "uint256",
          "name": "unlockAt",
          "type": "uint256"
        },
        {
          "internalType": "uint256",
          "name": "lastCompoundTime",
          "type": "uint256"
        },
        {
          "internalType": "enum NovaxStakingVault.StakingTier",
          "name": "tier",
          "type": "uint8"
        },
        {
          "internalType": "bool",
          "name": "autoCompound",
          "type": "bool"
        },
        {
          "internalType": "bool",
          "name": "active",
          "type": "bool"
        }
      ],
      "stateMutability": "view",
      "type": "function"
    },
    {
      "inputs": [
        {
          "internalType": "address",
          "name": "",
          "type": "address"
        }
      ],
      "name": "userTotalStaked",
      "outputs": [
        {
          "internalType": "uint256",
          "name": "",
          "type": "uint256"
        }
      ],
      "stateMutability": "view",
      "type": "function"
    },
    {
      "inputs": [],
      "name": "vaultCapacityManager",
      "outputs": [
        {
          "internalType": "address",
          "name": "",
          "type": "address"
        }
      ],
      "stateMutability": "view",
      "type": "function"
    }
  ],
  "bytecode": "0x60806040523461076d576130c36020813803918261001c81610791565b93849283398101031261076d57516001600160a01b0381169081900361076d576001600255801561072857610050336107b6565b5061005a33610832565b50610064336108ca565b50600380546001600160a01b03191691909117905542600f55610085610772565b62278d00815260046020820191610320835260408101603281526060820190633b9aca0082526100b56040610791565b94600686526529a4a62b22a960d11b6020870152608084019586526040600080805286602052209351845551600184015551600283015551600382015501905190815160018060401b0381116104d2578154600181811c9116801561071e575b60208210146104b257601f81116106d6575b50602092601f82116001146106735792819293600092610668575b50508160011b916000199060031b1c19161790555b61015f610772565b6276a70081526004602082019161032083526040810160968152606082019064012a05f20082526101906040610791565b948486526311d3d31160e21b602087015260808401958652604060006001815286602052209351845551600184015551600283015551600382015501905190815160018060401b0381116104d2578154600181811c9116801561065e575b60208210146104b257601f8111610616575b50602092601f82116001146105b357928192936000926105a8575b50508160011b916000199060031b1c19161790555b610238610772565b62ed4e0081526004602082019161032083526040810160fa815260608201906402540be40082526102696040610791565b946008865267504c4154494e554d60c01b602087015260808401958652604060006002815286602052209351845551600184015551600283015551600382015501905190815160018060401b0381116104d2578154600181811c9116801561059e575b60208210146104b257601f8111610556575b50602092601f82116001146104f357928192936000926104e8575b50508160011b916000199060031b1c19161790555b610316610772565b6301e13380815260046020820191610320835260408101610190815260608201906405d21dba0082526103496040610791565b9460078652661112505353d39160ca1b602087015260808401958652604060006003815286602052209351845551600184015551600283015551600382015501905190815160018060401b0381116104d2578154600181811c911680156104c8575b60208210146104b257601f811161046a575b50602092601f821160011461040757928192936000926103fc575b50508160011b916000199060031b1c19161790555b6040516126e090816109638239f35b0151905038806103d8565b601f1982169383600052806000209160005b8681106104525750836001959610610439575b505050811b0190556103ed565b015160001960f88460031b161c1916905538808061042c565b91926020600181928685015181550194019201610419565b826000526020600020601f830160051c810191602084106104a8575b601f0160051c01905b81811061049c57506103bd565b6000815560010161048f565b9091508190610486565b634e487b7160e01b600052602260045260246000fd5b90607f16906103ab565b634e487b7160e01b600052604160045260246000fd5b0151905038806102f9565b601f1982169383600052806000209160005b86811061053e5750836001959610610525575b505050811b01905561030e565b015160001960f88460031b161c19169055388080610518565b91926020600181928685015181550194019201610505565b826000526020600020601f830160051c81019160208410610594575b601f0160051c01905b81811061058857506102de565b6000815560010161057b565b9091508190610572565b90607f16906102cc565b01519050388061021b565b601f1982169383600052806000209160005b8681106105fe57508360019596106105e5575b505050811b019055610230565b015160001960f88460031b161c191690553880806105d8565b919260206001819286850151815501940192016105c5565b826000526020600020601f830160051c81019160208410610654575b601f0160051c01905b8181106106485750610200565b6000815560010161063b565b9091508190610632565b90607f16906101ee565b015190503880610142565b601f1982169383600052806000209160005b8681106106be57508360019596106106a5575b505050811b019055610157565b015160001960f88460031b161c19169055388080610698565b91926020600181928685015181550194019201610685565b826000526020600020601f830160051c81019160208410610714575b601f0160051c01905b8181106107085750610127565b600081556001016106fb565b90915081906106f2565b90607f1690610115565b60405162461bcd60e51b815260206004820152601460248201527f496e76616c6964205553444320616464726573730000000000000000000000006044820152606490fd5b600080fd5b6040519060a082016001600160401b038111838210176104d257604052565b6040519190601f01601f191682016001600160401b038111838210176104d257604052565b6001600160a01b03811660009081526000805160206130a3833981519152602052604090205460ff1661082c576001600160a01b031660008181526000805160206130a383398151915260205260408120805460ff191660011790553391906000805160206130438339815191528180a4600190565b50600090565b6001600160a01b0381166000908152600080516020613063833981519152602052604090205460ff1661082c576001600160a01b0316600081815260008051602061306383398151915260205260408120805460ff191660011790553391907fa49807205ce4d355092ef5a8a18f56e8913cf4a201fbe287825b095693c21775906000805160206130438339815191529080a4600190565b6001600160a01b0381166000908152600080516020613083833981519152602052604090205460ff1661082c576001600160a01b0316600081815260008051602061308383398151915260205260408120805460ff191660011790553391907f97667070c54ef182b0f5858b034beac1b6f3089aa2d3188bb1e8929f4fa9b929906000805160206130438339815191529080a460019056fe608080604052600436101561001357600080fd5b60003560e01c90816301ffc9a714611e755750806308f265d814611c4357806311eac85514611c1a578063248a9ca314611be55780632e17de781461196a5780632f2ff15d1461192a5780632f940c701461185f57806336568abe146118195780633af7dae1146117f05780633f4ba83a14611787578063567e98f91461176957806356d735681461172e5780635c975abb1461170b5780635faf22f2146114bb5780636482f37d146114785780636e2f16961461138a5780637045d94e146113c4578063719de1ef1461138a57806375b238fc1461134f5780637a1406fb146113315780637c48b21c1461116957806380fdea131461110c578063842e2981146110755780638456cb591461101c5780638d615eea14610ffe57806391d1485414610fb157806394d5879814610f93578063950bcd3d14610f6257806397206bd514610f445780639da9db2a14610ed3578063a217fddf14610eb7578063a9c75cff14610db2578063aede67ea14610d3c578063b1589bc814610b1c578063b5d5b5fa14610a6c578063d547741f14610a25578063d9bade8f14610a07578063e3685ce11461099a578063e49dbb4f146105fc578063e79c2dc114610495578063f5b541a61461045a578063f87793ad146104225763faaf8076146101f857600080fd5b3461041d57602036600319011261041d57610211611ede565b6001600160a01b0316600090815260066020908152604080832054600590925282208054909290819061024381612285565b946102516040519687612016565b81865282526020808320839187015b8383106103ff5750505050805b84518110156103735760e0610282828761229d565b510151610292575b60010161026d565b919061029d90612276565b9060a06102aa848761229d565b510151600481101561035d5760019164496cebb80061034e886103496103386102d561035597611f8a565b61032e60406103258d8251976102ea89611fdd565b855489528d8601549860208101998a52608061031d600460028a0154998885019a8b526003810154606086015201612038565b91015261229d565b510151426121a8565b93519051906121b5565b6103428a8d61229d565b5151612243565b612243565b04906121b5565b92905061028a565b634e487b7160e01b600052602160045260246000fd5b5091836008548215156000146103f457612710810281810461271014821517156103de576103a4846103ca92612256565b925b6040519687968688526020880152604087015260e0606087015260e0860190611f01565b92608085015260a084015260c08301520390f35b634e487b7160e01b600052601160045260246000fd5b6103ca6000926103a6565b6006602060019261040f856122bd565b815201920192019190610260565b600080fd5b3461041d57602036600319011261041d57600435600c5481101561041d5761044b60209161218d565b90549060031b1c604051908152f35b3461041d57600036600319011261041d5760206040517f97667070c54ef182b0f5858b034beac1b6f3089aa2d3188bb1e8929f4fa9b9298152f35b3461041d57600036600319011261041d576104ae612334565b506104b7612334565b506104c0612334565b506104c9612334565b506105ce604060008080526004602052206105146004604051926104ec84611fdd565b8054845260018101546020850152600281015460408501526003810154606085015201612038565b60808201526105f8604060006001815260046020522061053c6004604051926104ec84611fdd565b60808201526105ea60406000600281526004602052206105646004604051926104ec84611fdd565b60808201526105dc6040600060038152600460205220936105b560046040519661058d88611fdd565b8054885260018101546020890152600281015460408901526003810154606089015201612038565b608086015260405197889760808952608089019061214f565b90878203602089015261214f565b90858203604087015261214f565b90838203606085015261214f565b0390f35b3461041d57606036600319011261041d5760043560243590600482101561041d5760443580151580910361041d57610632612481565b61063a6124a1565b61064383611f8a565b6040519061065082611fdd565b80548252600181015460208301526002810154604083015261068060046003830154926060850193845201612038565b608083015251831061095f57600e546001600160a01b03168061088f575b506003546106c691906106bf908590309033906001600160a01b031661260b565b51426121b5565b604051936106d385611ff9565b83855260208501848152604086014281526060870196848852608081019242845260a082019361070386866122b1565b60c0830199888b5260e08401946001865233600052600560205260406000208054600160401b8110156108795761073f9160018201815561211d565b94909461086357600595518555516001850155516002840155516003830155516004820155019151600481101561035d5760009760ff61ff0085549251151560081b1692169061ffff19161717825551151562ff000082549160101b169062ff000019161790553385526006602052604085206107bd8582546121b5565b90556107cb846007546121b5565b6007556107da846009546121b5565b6009553385526005602052604085205460001981019490851161084f57906108119160405195865260208601526040850190611ef4565b606083015260808201524260a08201527fbe738943e3d122cb3cb554930e9c7675bda5fb75c6a610c88e98f83eebd0c96860c03392a2600160025580f35b634e487b7160e01b86526011600452602486fd5b634e487b7160e01b600052600060045260246000fd5b634e487b7160e01b600052604160045260246000fd5b6040602491815192838092635390665360e01b82528860048301525afa9081156109535760009161090c575b50156108c7578461069e565b60405162461bcd60e51b815260206004820152601e60248201527f5661756c742066756c6c202d20616464656420746f20776169746c69737400006044820152606490fd5b90506040813d60401161094b575b8161092760409383612016565b8101031261041d57610944602061093d83612327565b9201612327565b50856108bb565b3d915061091a565b6040513d6000823e3d90fd5b60405162461bcd60e51b815260206004820152601360248201527242656c6f77206d696e696d756d207374616b6560681b6044820152606490fd5b3461041d57600036600319011261041d57600080600c54905b8181106109c557602083604051908152f35b6109ce8161218d565b90549060031b1c600052600d60205260ff604060002054166109f3575b6001016109b3565b916109ff600191612276565b9290506109eb565b3461041d57600036600319011261041d57602060405162278d008152f35b3461041d57604036600319011261041d57610a6a600435610a44611ec8565b90610a65610a6082600052600060205260016040600020015490565b612446565b612589565b005b3461041d57604036600319011261041d57610a85611ede565b6001600160a01b031660009081526005602052604090208054602435919082101561041d5761010091610ab79161211d565b5060ff815491600181015490600281015460038201549060056004840154930154936040519687526020870152604086015260608501526080840152610b0260a08401838316611ef4565b818160081c16151560c084015260101c16151560e0820152f35b3461041d57604036600319011261041d57600435600481101561041d5760243567ffffffffffffffff811161041d5760a0600319823603011261041d57604051610b6581611fdd565b81600401358152602081019160248101358352604082016044820135815260608301916064810135835260848101359067ffffffffffffffff821161041d5701933660238601121561041d5760048501359467ffffffffffffffff86116108795760405196610bde601f8801601f191660200189612016565b868852366024838901011161041d5760006020886004996024610c189601838d01378a01015260808601978852610c136123d4565b611f8a565b9351845551600184015551600283015551600382015501905190815167ffffffffffffffff811161087957610c4d8254611fa3565b601f8111610cf4575b50602092601f8211600114610c945792819293600092610c89575b5050600019600383901b1c191660019190911b179055005b015190508380610c71565b601f1982169383600052806000209160005b868110610cdc5750836001959610610cc3575b505050811b019055005b015160001960f88460031b161c19169055838080610cb9565b91926020600181928685015181550194019201610ca6565b826000526020600020601f830160051c81019160208410610d32575b601f0160051c01905b818110610d265750610c56565b60008155600101610d19565b9091508190610d10565b3461041d57600036600319011261041d576007546008546009549091908115610da65761271083029083820461271014841517156103de57610d81836105f893612256565b905b604051948594859094939260609260808301968352602083015260408201520152565b6105f890600090610d83565b3461041d57604036600319011261041d57610e11610e0b610dd1611ede565b6001600160a01b03166000818152600560205260409020546024359190610df99083106121c2565b6000526005602052604060002061211d565b506122bd565b610e2060e08201511515612204565b60a081015190600482101561035d57610eae64496cebb80091610349610e47602095611f8a565b91610ea760405193610e5885611fdd565b805485526001810154948881019586526080610e8c6004600285015494604085019586526003810154606086015201612038565b910152610e9d6040840151426121a8565b94519051906121b5565b9051612243565b04604051908152f35b3461041d57600036600319011261041d57602060405160008152f35b3461041d57602036600319011261041d57600435600481101561041d57610ef990611f8a565b80546105f8600183015492600281015490610f1b600460038301549201612038565b91604051958695865260208601526040850152606084015260a0608084015260a08301906120dc565b3461041d57600036600319011261041d576020600a54604051908152f35b3461041d57602036600319011261041d57600435600052600d602052602060ff604060002054166040519015158152f35b3461041d57600036600319011261041d576020600f54604051908152f35b3461041d57604036600319011261041d57610fca611ec8565b600435600052600060205260406000209060018060a01b0316600052602052602060ff604060002054166040519015158152f35b3461041d57600036600319011261041d576020600854604051908152f35b3461041d57600036600319011261041d576110356123d4565b61103d6124a1565b600160ff19815416176001557f62e78cea01bee320cd4e420270b5ea74000d11b0c9f74754ebdbfc544b05a2586020604051338152a1005b3461041d57602036600319011261041d576001600160a01b03611096611ede565b166000526005602052604060002080546110af81612285565b916110bd6040519384612016565b818352602083019060005260206000206000915b8383106110ee57604051602080825281906105f890820188611f01565b600660206001926110fe856122bd565b8152019201920191906110d1565b3461041d57602036600319011261041d57600435600052600b60205260a06040600020805490600181015490600281015460ff60046003840154930154169260405194855260208501526040840152606083015215156080820152f35b3461041d57600036600319011261041d576007546008546009549091801561132657612710830283810461271014841517156103de57816111a991612256565b909291925b600a549160008093600c54945b8581106112d257506111cc82612285565b926111da6040519485612016565b8284526111e683612285565b602085019690601f19013688376000805b8281106112635750505060405197889760e08901968952602089015260408801526060870152608086015260a085015260e060c0850152518091526101008301919060005b81811061124a575050500390f35b825184528594506020938401939092019160010161123c565b611275819b9495969798999a9b61218d565b90549060031b1c600052600d60205260ff604060002054166112a3575b6001019998979695949392996111f7565b906112ca6001916112b38461218d565b90549060031b1c6112c4828c61229d565b52612276565b919050611292565b6112e48198959697989492939461218d565b90549060031b1c600052600d60205260ff60406000205416611312575b6001019695949396929190926111bb565b9261131e600191612276565b939050611301565b6000909291926111ae565b3461041d57600036600319011261041d576020600954604051908152f35b3461041d57600036600319011261041d5760206040517fa49807205ce4d355092ef5a8a18f56e8913cf4a201fbe287825b095693c217758152f35b3461041d57602036600319011261041d576001600160a01b036113ab611ede565b1660005260066020526020604060002054604051908152f35b3461041d57602036600319011261041d57600060806040516113e581611fdd565b8281528260208201528260408201528260608201520152600435600052600b60205260a0604060002060405161141a81611fdd565b81549182825260018101546020830190815260028201549060408401918252608060ff600460038601549560608801968752015416940193151584526040519485525160208501525160408401525160608301525115156080820152f35b3461041d57602036600319011261041d57611491611ede565b6114996123d4565b600e80546001600160a01b0319166001600160a01b0392909216919091179055005b3461041d57606036600319011261041d576004356024356044356114dd612362565b6114e5612481565b6114ed6124a1565b82600052600d60205260ff60406000205416156116d45782600052600b6020526040600020906004820160ff815416611699576001830154841161165457836115f19183600361155e827f643a48f0c3508f78682d374ce818e60a2d978e2acd1df534dd8b37cee8a68d5d996121b5565b966115768860018060a01b038454163090339061260b565b8460028201550155600160ff1982541617905585600052600d602052604060002060ff1981541690556115ab816008546121a8565b6008556115ba846009546121b5565b6009556115c983600a546121b5565b600a556040519384934292859094939260609260808301968352602083015260408201520152565b0390a2600f5462278d0081018091116103de57421015611613575b6001600255005b42600f557f17fa3d13d806bb2e29544c6555b77e4cd5af678e7d599fdbca3ecd9d7277f18960606040516000815260006020820152426040820152a161160c565b60405162461bcd60e51b815260206004820152601a60248201527f5072696e636970616c2065786365656473206465706c6f7965640000000000006044820152606490fd5b60405162461bcd60e51b8152602060048201526013602482015272141bdbdb08185b1c9958591e4818db1bdcd959606a1b6044820152606490fd5b60405162461bcd60e51b815260206004820152600f60248201526e506f6f6c206e6f742061637469766560881b6044820152606490fd5b3461041d57600036600319011261041d57602060ff600154166040519015158152f35b3461041d57600036600319011261041d5760206040517f6077685936c8169d09204a1d97db12e41713588c38e1d29a61867d3dcee98aff8152f35b3461041d57600036600319011261041d576020600754604051908152f35b3461041d57600036600319011261041d576117a06123d4565b60015460ff8116156117df5760ff19166001557f5db9ee0a495bf2e6ff9c91a7834c1ba4fdd244a5e8aa4e537bd38aeae4b073aa6020604051338152a1005b638dfc202b60e01b60005260046000fd5b3461041d57600036600319011261041d57600e546040516001600160a01b039091168152602090f35b3461041d57604036600319011261041d57611832611ec8565b336001600160a01b0382160361184e57610a6a90600435612589565b63334bd91960e11b60005260046000fd5b3461041d57604036600319011261041d57611878611ec8565b3360009081527fad3228b676f7d3cd4284a5443f17f1962b36e491b30a40b2405849e597ba5fb5602052604090205460ff1615611910576001600160a01b038116156118d757600354610a6a91600435916001600160a01b03166124be565b60405162461bcd60e51b8152602060048201526011602482015270125b9d985b1a59081c9958da5c1a595b9d607a1b6044820152606490fd5b63e2517d3f60e01b60005233600452600060245260446000fd5b3461041d57604036600319011261041d57610a6a600435611949611ec8565b90611965610a6082600052600060205260016040600020015490565b6124fe565b3461041d57602036600319011261041d57600435611986612481565b61198e6124a1565b3360005260056020526119a760406000205482106121c2565b3360005260056020526119be81604060002061211d565b50600581018054916119d560ff8460101c16612204565b60038101544210611bb1576119ec60ff8416611f8a565b91611a43604051936119fd85611fdd565b80548552600181015494602081019586526080611a326004600285015494604085019586526003810154606086015201612038565b910152610e9d6002850154426121a8565b9260ff8560081c16600014611b9257601984018094116103de5764496cebb800611a76611a7e9261034986549788612243565b0480946121b5565b935b8460095410611b2f5762ff0000191690558054336000526006602052611aac60406000209182546121a8565b9055611abb81546007546121a8565b600755611aca836009546121a8565b600955600354611ae690849033906001600160a01b03166124be565b546040519384526020840152604083015260608201524260808201527f055f388d8102e9e2bfeaa944b25b4cdb0c06fd1c42d5c2812a8f3c7ac1aa26d360a03392a26001600255005b60405162461bcd60e51b815260206004820152603560248201527f496e73756666696369656e74207661756c742062616c616e6365202d207761696044820152747420666f7220706f6f6c7320746f206d617475726560581b6064820152608490fd5b64496cebb800611a76611bab9261034986549788612243565b93611a80565b60405162461bcd60e51b815260206004820152600c60248201526b14dd1a5b1b081b1bd8dad95960a21b6044820152606490fd5b3461041d57602036600319011261041d576020611c12600435600052600060205260016040600020015490565b604051908152f35b3461041d57600036600319011261041d576003546040516001600160a01b039091168152602090f35b3461041d57604036600319011261041d57600435602435611c62612362565b611c6a612481565b611c726124a1565b8015611e3b578060095410611df65781600052600d60205260ff60406000205416611db957600354611cb090829033906001600160a01b03166124be565b611cbc816009546121a8565b600955611ccb816008546121b5565b600855604051611cda81611fdd565b82815260046020820191838352604081016000815260608201906000825260808301946000865287600052600b602052604060002093518455516001840155516002830155516003820155019051151560ff80198354169116179055600c54600160401b811015610879577f426d61655c9721c87873401dd291167a221c65c6bcbb60da2f778a215b799fab91611d7982600160409401600c5561218d565b81549060031b9086821b91600019901b191617905583600052600d60205281600020600160ff198254161790558151908152426020820152a26001600255005b60405162461bcd60e51b8152602060048201526015602482015274141bdbdb08185b1c9958591e4819195c1b1bde5959605a1b6044820152606490fd5b60405162461bcd60e51b815260206004820152601e60248201527f496e73756666696369656e7420617661696c61626c65206361706974616c00006044820152606490fd5b60405162461bcd60e51b81526020600482015260126024820152710416d6f756e74206d757374206265203e20360741b6044820152606490fd5b3461041d57602036600319011261041d576004359063ffffffff60e01b821680920361041d57602091637965db0b60e01b8114908115611eb7575b5015158152f35b6301ffc9a760e01b14905083611eb0565b602435906001600160a01b038216820361041d57565b600435906001600160a01b038216820361041d57565b90600482101561035d5752565b906020808351928381520192019060005b818110611f1f5750505090565b909192602061010060019260e08751805183528481015185840152604081015160408401526060810151606084015260808101516080840152611f6a60a082015160a0850190611ef4565b60c0818101511515908401520151151560e0820152019401929101611f12565b600481101561035d576000526004602052604060002090565b90600182811c92168015611fd3575b6020831014611fbd57565b634e487b7160e01b600052602260045260246000fd5b91607f1691611fb2565b60a0810190811067ffffffffffffffff82111761087957604052565b610100810190811067ffffffffffffffff82111761087957604052565b90601f8019910116810190811067ffffffffffffffff82111761087957604052565b906040519182600082549261204c84611fa3565b80845293600181169081156120ba5750600114612073575b5061207192500383612016565b565b90506000929192526020600020906000915b81831061209e5750509060206120719282010138612064565b6020919350806001915483858901015201910190918492612085565b90506020925061207194915060ff191682840152151560051b82010138612064565b919082519283825260005b848110612108575050826000602080949584010152601f8019910116010190565b806020809284010151828286010152016120e7565b8054821015612139576000526006602060002091020190600090565b634e487b7160e01b600052603260045260246000fd5b9060a0608061218a938051845260208101516020850152604081015160408501526060810151606085015201519181608082015201906120dc565b90565b600c5481101561213957600c60005260206000200190600090565b919082039182116103de57565b919082018092116103de57565b156121c957565b60405162461bcd60e51b8152602060048201526013602482015272092dcecc2d8d2c840e6e8c2d6ca40d2dcc8caf606b1b6044820152606490fd5b1561220b57565b60405162461bcd60e51b815260206004820152601060248201526f5374616b65206e6f742061637469766560801b6044820152606490fd5b818102929181159184041417156103de57565b8115612260570490565b634e487b7160e01b600052601260045260246000fd5b60001981146103de5760010190565b67ffffffffffffffff81116108795760051b60200190565b80518210156121395760209160051b010190565b600482101561035d5752565b906040516122ca81611ff9565b60e060ff600583958054855260018101546020860152600281015460408601526003810154606086015260048101546080860152015461230f82821660a086016122b1565b818160081c16151560c085015260101c161515910152565b5190811515820361041d57565b6040519061234182611fdd565b60606080836000815260006020820152600060408201526000838201520152565b3360009081527f729ef9451dd492832bd2a98139702ced95dfa0cec7e99526dbbcb957abcbc476602052604090205460ff161561239b57565b63e2517d3f60e01b600052336004527f6077685936c8169d09204a1d97db12e41713588c38e1d29a61867d3dcee98aff60245260446000fd5b3360009081527f7d7ffb7a348e1c6a02869081a26547b49160dd3df72d1d75a570eb9b698292ec602052604090205460ff161561240d57565b63e2517d3f60e01b600052336004527fa49807205ce4d355092ef5a8a18f56e8913cf4a201fbe287825b095693c2177560245260446000fd5b60008181526020818152604080832033845290915290205460ff16156124695750565b63e2517d3f60e01b6000523360045260245260446000fd5b60028054146124905760028055565b633ee5aeb560e01b60005260046000fd5b60ff600154166124ad57565b63d93c066560e01b60005260046000fd5b60405163a9059cbb60e01b60208201526001600160a01b039092166024830152604480830193909352918152612071916124f9606483612016565b61264f565b6000818152602081815260408083206001600160a01b038616845290915290205460ff16612582576000818152602081815260408083206001600160a01b0395909516808452949091528120805460ff19166001179055339291907f2f8788117e7eff1d82e926ec794901d17c78024a50270940304540a733656f0d9080a4600190565b5050600090565b6000818152602081815260408083206001600160a01b038616845290915290205460ff1615612582576000818152602081815260408083206001600160a01b0395909516808452949091528120805460ff19169055339291907ff6391f5c32d9c69d2a47ea670b442974b53935d1edc7fd64eb21e047a839171b9080a4600190565b6040516323b872dd60e01b60208201526001600160a01b039283166024820152929091166044830152606480830193909352918152612071916124f9608483612016565b906000602091828151910182855af115610953576000513d6126a157506001600160a01b0381163b155b6126805750565b635274afe760e01b60009081526001600160a01b0391909116600452602490fd5b6001141561267956fea264697066735822122058dd41bfdf575113ba69abb1b48d5013225c7ae90845567ea9e694d45e2d706164736f6c634300081c00332f8788117e7eff1d82e926ec794901d17c78024a50270940304540a733656f0d7d7ffb7a348e1c6a02869081a26547b49160dd3df72d1d75a570eb9b698292ecee57cd81e84075558e8fcc182a1f4393f91fc97f963a136e66b7f949a62f319fad3228b676f7d3cd4284a5443f17f1962b36e491b30a40b2405849e597ba5fb5",
  "linkReferences": {},
  "deployedLinkReferences": {}
}